{
  "_format": "hh-sol-artifact-1",
  "contractName": "Crowdsale",
  "sourceName": "contracts/Crowdsale.sol",
  "abi": [
    {
      "inputs": [
        {
          "internalType": "address",
          "name": "_token",
          "type": "address"
        },
        {
          "internalType": "uint256",
          "name": "_rate",
          "type": "uint256"
        },
        {
          "internalType": "uint256",
          "name": "_deadline",
          "type": "uint256"
        }
      ],
      "stateMutability": "nonpayable",
      "type": "constructor"
    },
    {
      "anonymous": false,
      "inputs": [
        {
          "indexed": true,
          "internalType": "address",
          "name": "purchaser",
          "type": "address"
        },
        {
          "indexed": false,
          "internalType": "uint256",
          "name": "value",
          "type": "uint256"
        },
        {
          "indexed": false,
          "internalType": "uint256",
          "name": "amount",
          "type": "uint256"
        }
      ],
      "name": "TokenPurchase",
      "type": "event"
    },
    {
      "inputs": [],
      "name": "etherSend",
      "outputs": [],
      "stateMutability": "nonpayable",
      "type": "function"
    },
    {
      "inputs": [],
      "name": "rate",
      "outputs": [
        {
          "internalType": "uint256",
          "name": "",
          "type": "uint256"
        }
      ],
      "stateMutability": "view",
      "type": "function"
    },
    {
      "inputs": [],
      "name": "tokenAmount",
      "outputs": [
        {
          "internalType": "uint256",
          "name": "",
          "type": "uint256"
        }
      ],
      "stateMutability": "view",
      "type": "function"
    },
    {
      "inputs": [],
      "name": "weiRaised",
      "outputs": [
        {
          "internalType": "uint256",
          "name": "",
          "type": "uint256"
        }
      ],
      "stateMutability": "view",
      "type": "function"
    },
    {
      "stateMutability": "payable",
      "type": "receive"
    }
  ],
  "bytecode": "0x60806040526000600360006101000a81548160ff0219169083151502179055503480156200002c57600080fd5b5060405162000a4338038062000a438339818101604052810190620000529190620000e4565b826000806101000a81548173ffffffffffffffffffffffffffffffffffffffff021916908373ffffffffffffffffffffffffffffffffffffffff160217905550816001819055504281620000a791906200013a565b60048190555050505062000238565b600081519050620000c78162000204565b92915050565b600081519050620000de816200021e565b92915050565b600080600060608486031215620000fa57600080fd5b60006200010a86828701620000b6565b93505060206200011d86828701620000cd565b92505060406200013086828701620000cd565b9150509250925092565b60006200014782620001cb565b91506200015483620001cb565b9250827fffffffffffffffffffffffffffffffffffffffffffffffffffffffffffffffff038211156200018c576200018b620001d5565b5b828201905092915050565b6000620001a482620001ab565b9050919050565b600073ffffffffffffffffffffffffffffffffffffffff82169050919050565b6000819050919050565b7f4e487b7100000000000000000000000000000000000000000000000000000000600052601160045260246000fd5b6200020f8162000197565b81146200021b57600080fd5b50565b6200022981620001cb565b81146200023557600080fd5b50565b6107fb80620002486000396000f3fe6080604052600436106100435760003560e01c80632c4e722e14610224578063382fad911461024f5780634042b66f14610266578063eec7faa1146102915761021f565b3661021f5742600454101561006e576001600360006101000a81548160ff0219169083151502179055505b60001515600360009054906101000a900460ff161515146100c4576040517f08c379a00000000000000000000000000000000000000000000000000000000081526004016100bb906105db565b60405180910390fd5b6000339050600034905060008114156100dc57600080fd5b60006100e66102bc565b14156100f157600080fd5b60006001548261010191906106c6565b905081600260008282546101159190610670565b9250508190555060008054906101000a900473ffffffffffffffffffffffffffffffffffffffff1673ffffffffffffffffffffffffffffffffffffffff1663a9059cbb84836040518363ffffffff1660e01b81526004016101779291906105b2565b602060405180830381600087803b15801561019157600080fd5b505af11580156101a5573d6000803e3d6000fd5b505050506040513d601f19601f820116820180604052508101906101c991906104a7565b508273ffffffffffffffffffffffffffffffffffffffff167fcd60aa75dea3072fbc07ae6d7d856b5dc5f4eee88854f5b4abf7b680ef8bc50f8383604051610212929190610636565b60405180910390a2505050005b600080fd5b34801561023057600080fd5b5061023961036d565b604051610246919061061b565b60405180910390f35b34801561025b57600080fd5b50610264610373565b005b34801561027257600080fd5b5061027b610477565b604051610288919061061b565b60405180910390f35b34801561029d57600080fd5b506102a66102bc565b6040516102b3919061061b565b60405180910390f35b60008060009054906101000a900473ffffffffffffffffffffffffffffffffffffffff1673ffffffffffffffffffffffffffffffffffffffff166370a08231306040518263ffffffff1660e01b81526004016103189190610597565b60206040518083038186803b15801561033057600080fd5b505afa158015610344573d6000803e3d6000fd5b505050506040513d601f19601f8201168201806040525081019061036891906104d0565b905090565b60015481565b73911839f78770823ee882bd0e7c8645bf8fc7dc0473ffffffffffffffffffffffffffffffffffffffff163373ffffffffffffffffffffffffffffffffffffffff16146103f5576040517f08c379a00000000000000000000000000000000000000000000000000000000081526004016103ec906105fb565b60405180910390fd5b73911839f78770823ee882bd0e7c8645bf8fc7dc0473ffffffffffffffffffffffffffffffffffffffff166108fc6002549081150290604051600060405180830381858888f19350505050158015610451573d6000803e3d6000fd5b506001600360006101000a81548160ff0219169083151502179055506000600281905550565b60025481565b60008151905061048c81610797565b92915050565b6000815190506104a1816107ae565b92915050565b6000602082840312156104b957600080fd5b60006104c78482850161047d565b91505092915050565b6000602082840312156104e257600080fd5b60006104f084828501610492565b91505092915050565b61050281610720565b82525050565b600061051560148361065f565b91507f2d2d2053616c736520436c6f7365642e202d2d200000000000000000000000006000830152602082019050919050565b6000610555600a8361065f565b91507f6f6e6c79206f776e6572000000000000000000000000000000000000000000006000830152602082019050919050565b6105918161075e565b82525050565b60006020820190506105ac60008301846104f9565b92915050565b60006040820190506105c760008301856104f9565b6105d46020830184610588565b9392505050565b600060208201905081810360008301526105f481610508565b9050919050565b6000602082019050818103600083015261061481610548565b9050919050565b60006020820190506106306000830184610588565b92915050565b600060408201905061064b6000830185610588565b6106586020830184610588565b9392505050565b600082825260208201905092915050565b600061067b8261075e565b91506106868361075e565b9250827fffffffffffffffffffffffffffffffffffffffffffffffffffffffffffffffff038211156106bb576106ba610768565b5b828201905092915050565b60006106d18261075e565b91506106dc8361075e565b9250817fffffffffffffffffffffffffffffffffffffffffffffffffffffffffffffffff048311821515161561071557610714610768565b5b828202905092915050565b600061072b8261073e565b9050919050565b60008115159050919050565b600073ffffffffffffffffffffffffffffffffffffffff82169050919050565b6000819050919050565b7f4e487b7100000000000000000000000000000000000000000000000000000000600052601160045260246000fd5b6107a081610732565b81146107ab57600080fd5b50565b6107b78161075e565b81146107c257600080fd5b5056fea2646970667358221220815decb08a74ec300972b673f23c2e2db76ade187b237d379aed10c5b91a6e0964736f6c63430008000033",
  "linkReferences": {},
  "deployedLinkReferences": {}
}